:020000040800F2
:10000000F81C002001010008C91D0008CB1D0008D4
:10001000CF1D0008D31D0008D71D000800000000F8
:10002000000000000000000000000000DB1D0008D0
:10003000DD1D000800000000DF1D0008E11D0008B4
:100040001B0100081B0100081B0100081B01000820
:100050001B0100081B0100081B0100081B01000810
:100060001B0100081B0100081B0100081B01000800
:100070001B0100081B0100081B0100081B010008F0
:100080001B0100081B0100081B0100081B010008E0
:100090001B0100081B0100081B0100081B010008D0
:1000A0001B0100081B0100081B0100081B010008C0
:1000B0001B0100081B0100081B0100081B010008B0
:1000C0001B0100081B0100081B0100081B010008A0
:1000D0001B0100081B010008E31D00081B010008AC
:1000E0001B0100081B0100081B010008DFF80CD0F1
:1000F00002F0A2FD00480047051D0008F81C002082
:100100000648804706480047FEE7FEE7FEE7FEE7B1
:10011000FEE7FEE7FEE7FEE7FEE7FEE70302000874
:10012000ED0000080CB50020019000906C480068BC
:1001300040F480306A49086000BF6948006800F4F4
:10014000003000900198401C0190009818B9019867
:10015000B0F5A06FF1D16248006800F4003010B132
:100160000120009001E0002000900098012843D178
:100170005C48006840F010005A4908600846006872
:1001800020F0030008600846006840F002000860A4
:1001900053484068524948600846406848600846ED
:1001A000406840F4806048600846406820F47C1055
:1001B00048600846406840F4E81048600846006817
:1001C00040F08070086000BF4548006800F0007093
:1001D0000028F9D04248406820F0030040494860B8
:1001E0000846406840F00200486000BF3C48406854
:1001F00000F00C000828F9D10CBD10B5FFF792FFF4
:1002000010BD10B53648006840F001003449086060
:10021000084640683449084031494860084600684B
:10022000324908402E4908600846006820F48020C2
:1002300008600846406820F4FE0048604FF41F0044
:100240008860FFF7DAFF4FF000602949086010BDB1
:1002500010B5002100200022214B5B6803F00C0147
:1002600021B1042906D0082928D107E0214B224CCE
:10027000236027E01F4B204C236023E0184B5B6872
:1002800003F47010164B5B6803F48032022303EB17
:10029000904022B9194B4343174C23600DE0104B9B
:1002A0005B6803F4003323B1144B4343124C2360C7
:1002B00003E0104B4343104C236003E00D4B0E4C06
:1002C000236000BF00BF064B5B68C3F303130C4CF5
:1002D000E15C094B1B68CB40074C236010BD00005C
:1002E00000100240002002400000FFF8FFFFF6FE71
:1002F00008ED00E000127A000000002000093D0037
:100300000400002031490143314A1160704770B543
:10031000002100230F22C47804B32D4C246804F478
:10032000E064C4F5E064210AC1F10403CA404478E2
:1003300004FA03F18478144021430901254C06781E
:10034000A155047804F01F050124AC4005786D1117
:10035000AD0005F1E025C5F8004109E0047804F09E
:100360001F050124AC401C4D0678761145F8264047
:1003700070BD1A4A0A400243154B1B1F1A60704792
:1003800039B1134A121D12680243114B1B1D1A602A
:1003900006E00F4A121D126882430D4B1B1D1A60A6
:1003A0007047042808D14FF0E021096941F00401A9
:1003B0004FF0E022116107E04FF0E021096921F0E0
:1003C00004014FF0E0221161704700000000FA05BF
:1003D0000CED00E000E400E080E100E080FFFF1FA2
:1003E00010B50446CC48844208D10121042000F015
:1003F0002DFB0021042000F029FB46E0C748844281
:1004000008D10121082000F021FB0021082000F084
:100410001DFB3AE0C248844208D10121102000F0BF
:1004200015FB0021102000F011FB2EE0BD48844296
:1004300008D10121202000F009FB0021202000F03C
:1004400005FB22E0B848844208D10121402000F099
:10045000FDFA0021402000F0F9FA16E0B34884428A
:1004600008D10121802000F0F1FA0021802000F065
:10047000EDFA0AE0AE48844207D10121801500F070
:10048000E5FA0021A01500F0E1FA10BD10B5012138
:10049000084600F0DBFA0021012000F0D7FA10BD79
:1004A0002DE9F0410246002500260020002300240B
:1004B000002791F803C00CF00F0591F803C00CF071
:1004C000100CBCF1000F03D091F802C04CEA0505F6
:1004D00091F800C0BCF1000F31D0146800202BE06F
:1004E0004FF0010C0CFA00F3B1F800C00CEA03065F
:1004F0009E4220D183004FF00F0C0CFA03F7BC434F
:1005000005FA03FC4CEA040491F803C0BCF1280F7F
:1005100006D14FF0010C0CFA00FCC2F814C00AE03E
:1005200091F803C0BCF1480F05D14FF0010C0CFA53
:1005300000FCC2F810C0401C0828D1D31460B1F8E8
:1005400000C0BCF1FF0F34DD546800202EE000F144
:10055000080C4FF0010808FA0CF3B1F800C00CEADF
:1005600003069E4221D183004FF00F0C0CFA03F7D3
:10057000BC4305FA03FC4CEA040491F803C0BCF147
:10058000280F05D100F1080C08FA0CF8C2F8148005
:1005900091F803C0BCF1480F07D100F1080C4FF0EF
:1005A000010808FA0CF8C2F81080401C0828CED3C5
:1005B0005460BDE8F0814FF6FF7101800221817027
:1005C0000421C17070470246002093680B400BB1B4
:1005D000012000E0002070470146886880B2704723
:1005E00002460020D3680B400BB1012000E0002040
:1005F00070470146C86880B2704701617047416129
:1006000070470AB1016100E041617047C160704705
:100610004FF480320A43826181618261826982691A
:10062000704702460020434B18684FF6807318400D
:1006300040EA021008433F4B186070473E49C861CA
:100640007047F0B50A46002300240021002500F081
:100650000046B6F1004F02D1364EF16901E0354E49
:100660007168C0F3034583B200F44016B6F5401F2D
:1006700008D121F070612F4E766826F070662D4FFC
:100680007E6012E000F48016B6F5801F06D10326C6
:1006900006FA05F4A14341F0706106E0460D36010B
:1006A00003FA06F6B14341F0706122B1460D3601FE
:1006B00003FA06F6314300F00046B6F1004F02D1CE
:1006C0001C4EF16101E01B4E7160F0BD30B500229F
:1006D0008B071C0F0F2303FA04F2164B08338C1000
:1006E00053F824309343134C08348D1044F82530CC
:1006F00023468C1053F824308C07240F00FA04F49E
:1007000023430C4C08348D1044F8253030BD0A4981
:10071000DC3108607047000000080140000C014017
:10072000001001400014014000180140001C01406D
:10073000002001400000014000002042DF48006826
:1007400040F00100DD49086008464068DC49084087
:10075000DA49486008460068DA490840D749086025
:100760000846006820F4802008600846406820F4AD
:10077000FE0048604FF41F0088607047CF49096849
:1007800021F48031CD4A11601146096821F480219D
:100790001160B0F5803F03D0B0F5802F0ED106E098
:1007A000C649096841F48031C44A116007E0C34971
:1007B000096841F4A021C14A116000E000BF00BFF8
:1007C000704710B501460022002300204A11012A7B
:1007D00002D1BA4C236806E0022A02D1B74C236A40
:1007E00001E0B64C636A01F01F02012494401C40F2
:1007F0000CB1012000E0002010BD38B500200090B1
:100800000024002500BF3120FFF7DBFF05460098DC
:10081000401C00900098B0F5A06F01D0002DF2D0E0
:100820003120FFF7CEFF08B1012400E0002420466C
:1008300038BD01460020A14A106820F0F80040EAC7
:10084000C10010607047A049086070470246002050
:100850009A4B586820F47C1042EA01031843974BE6
:100860005860704798490866704701460020934ACF
:10087000506820F003000843506070478F4840687C
:1008800000F00C007047014600208C4A506820F0B0
:10089000F00008435060704701460020874A5068C6
:1008A00020F4E06008435060704701460020834A0E
:1008B000506820F4605040EAC1005060704729B190
:1008C0007E4A527A02437D4B5A7204E07B4A527A46
:1008D00082437A4B5A7270477B49D831086070471F
:1008E00001460020754A506820F44040084350609B
:1008F00070470021714A20321170704A82F820102E
:10090000012802D004280AD104E001216B4A2032D8
:10091000117005E00521694A2032117000E000BF26
:1009200000BF70476949086070476449096A01431C
:10093000624A11627047654944390860704730B5B2
:1009400000210022002400235C4D6D6805F00C019D
:1009500021B1042905D0082923D105E05C4D0560AB
:1009600022E05B4D05601FE0544D6D6805F4701288
:10097000524D6D6805F48034022505EB92421CB996
:10098000544D554305600BE04C4D6D6805F4003542
:100990001DB1504D5543056002E04D4D5543056076
:1009A00002E04B4D056000BF00BF444D6D6805F08F
:1009B000F0010909484D6B5C0568DD4045603F4D1D
:1009C0006D6805F4E061090A434D6B5C4568DD40E4
:1009D00085603A4D6D6805F46051C90A3E4D6B5C07
:1009E0004568DD40C560354D6D6805F44041890BB3
:1009F0003A4D6B5CC568B5FBF3F5056130BD29B1B7
:100A00002E4A526902432D4B5A6104E02B4A526927
:100A100082432A4B5A61704729B1284A926902439E
:100A2000264B9A6104E0254A92698243234B9A61DE
:100A3000704729B1214AD2690243204BDA6104E0B0
:100A40001E4AD26982431D4BDA61704729B11B4AA5
:100A5000D2680243194BDA6004E0184AD268824334
:100A6000164BDA60704729B1144A12690243134BDE
:100A70001A6104E0114A12698243104B1A617047EF
:100A800012494039086070470F49C86470470B49E4
:100A9000C87170470948406A40F080700749486251
:100AA000704701460020054A92680A400AB10120B9
:100AB00000E0002070470149887270470010024032
:100AC0000000FFF8FFFFF6FE0000424280044242B1
:100AD00000127A0000093D001400002024000020CC
:100AE00010B50446FE48844208D10121C014FFF726
:100AF000ADFF0021E014FFF7A9FFC4E0B4F1804F7F
:100B000008D101210846FFF7AEFF00210120FFF7C1
:100B1000AAFFB8E0F348844208D101210220FFF780
:100B2000A2FF00210220FFF79EFFACE0EE488442C6
:100B300008D101210420FFF796FF00210420FFF7D0
:100B400092FFA0E0E948844208D101210820FFF784
:100B50008AFF00210820FFF786FF94E0E4488442E2
:100B600008D101211020FFF77EFF00211020FFF7A0
:100B70007AFF88E0DF48844208D101212020FFF776
:100B800072FF00212020FFF76EFF7CE0DA488442EC
:100B900008D101214014FFF759FF00216014FFF72D
:100BA00055FF70E0D548844209D10121C804FFF700
:100BB0004DFF00214FF40020FFF748FF63E0D048CD
:100BC000844209D101210805FFF740FF00214FF4BD
:100BD0008010FFF73BFF56E0CA48844209D101214B
:100BE0004805FFF733FF00214FF40010FFF72EFFF9
:100BF00049E0C548844208D101214020FFF733FF76
:100C000000214020FFF72FFF3DE0C048844208D17B
:100C100001218020FFF727FF00218020FFF723FF1D
:100C200031E0BB48844208D101218015FFF71BFF4A
:100C30000021A015FFF717FF25E0B648844209D12F
:100C400001210804FFF702FF00214FF48030FFF775
:100C5000FDFE18E0B048844209D101214804FFF7A5
:100C6000F5FE00214FF40030FFF7F0FE0BE0AB483B
:100C7000844208D101218804FFF7E8FE00214FF4E7
:100C80008020FFF7E3FE10BD00220288944B9842BB
:100C90000ED0994B98420BD0B0F1804F08D0914BB9
:100CA000984205D0904B984202D0904B984204D184
:100CB0004FF68F731A404B881A438D4B984207D0DA
:100CC0008C4B984204D04FF6FF431A40CB881A430E
:100CD00002808B8883850B880385814B98420BD0DB
:100CE000854B984208D08B4B984205D08A4B98424E
:100CF00002D08A4B984201D10B7A0386012383826A
:100D0000704770B5002400220023058C4FF6FE7654
:100D100035400584028C8388048B4FF68F752C40F8
:100D2000B51E2C400D882C43751E2A400D892A4380
:100D30004D882A436A4DA8420BD06F4DA84208D077
:100D4000744DA84205D0744DA84202D0734DA842FC
:100D500013D14FF6F7752A404D892A434FF6FB759C
:100D60002A408D882A434FF6FF652B404FF6FF55EA
:100D70002B408D892B43CD892B4383800483CD88E1
:100D80008586028470BD70B5002400220023058C86
:100D90004FF6EF7635400584028C8388048B48F645
:100DA000FF752C404FF6FF452C400D884FF6FF761F
:100DB00006EA05252C434FF6DF752A400D8906EA21
:100DC00005152A434D8806EA05152A43444DA842D5
:100DD00002D0494DA8421DD14FF67F752A404D895A
:100DE0004FF6FF7606EA05152A434FF6BF752A40EF
:100DF0008D8806EA05152A434FF6FF352B404FF242
:100E0000FF752B408D8906EA85052B43CD8906EABF
:100E100085052B4383800483CD880587028470BDBC
:100E200070B5002400220023058C4FF6FF66354084
:100E30000584028C8388848B4FF68F752C404FF687
:100E4000FC752C400D882C434FF6FF552A400D8928
:100E50004FF6FF7606EA05252A434D8806EA052562
:100E60002A431F4DA84202D0234DA8421DD14FF264
:100E7000FF752A404D894FF6FF7606EA05252A437D
:100E80004FF6FF352A408D8806EA05252A434EF69F
:100E9000FF752B404DF6FF752B408D8906EA051531
:100EA0002B43CD8906EA05152B4383808483CD88A7
:100EB0008587028470BD70B5002200230024058C54
:100EC0004EF6FF7635400584038C8488828B48F685
:100ED000FF752A404FF6FF452A400D8820E00000AC
:100EE000002C01400004004000080040000C0040BD
:100EF000001000400014004000340140004C01404C
:100F0000005001400054014000180040001C004007
:100F100000200040004001400044014000480140E2
:100F20004FF6FF7606EA05252A434DF6FF752B405E
:100F30000D8906EA05352B434D8806EA05352B4316
:100F4000FA4DA84202D0FA4DA84208D14BF6FF75DF
:100F50002C408D894FF6FF7606EA85152C43848058
:100F60008283CD88A0F84050038470BD828B4FF2FD
:100F7000FF331A408283828B4FF6FF7303EA01230B
:100F80001A4382837047F0B50C46154600220021B3
:100F90000026078C4EF6FF7C07EA0C070784828B3D
:100FA000018C4FF6FF7707EA043640F6FF473A40D8
:100FB0004FF6FF7707EA05273A434FF6FF7707EA30
:100FC00003373A43D94FB8420ED0D94FB8420BD06D
:100FD000B0F1804F08D0D74FB84205D0D64FB842B5
:100FE00002D0D64FB84206D14DF6FF77394046F4CD
:100FF0008057394305E047F6FF57394044F480579E
:10100000394382830184F0BD828B4FF6F3731A401B
:101010008283828B0A4382837047F0B50C46154663
:10102000002200210026078C4FF6FF6C07EA0C0710
:101030000784828B018C4FF6FF7707EA04264FF670
:101040000C773A404FF6FF7707EA03172F433A43EE
:10105000B64FB8420ED0B64FB8420BD0B0F1804F69
:1010600008D0B44FB84205D0B34FB84202D0B34F06
:10107000B84206D14FF6FF57394046F480773943DE
:1010800005E04FF2FF57394044F4807739438283BB
:101090000184F0BD028B4FF2FF331A400283028BB2
:1010A0004FF6FF7303EA01231A4302837047F0B53A
:1010B0000C461546002200210026078C4FF6EF7CD7
:1010C00007EA0C070784028B018C4FF6FF7707EACB
:1010D000041640F6FF473A404FF6FF7707EA03371A
:1010E0003A434FF6FF7707EA05273A438F4FB84256
:1010F0000ED08F4FB8420BD0B0F1804F08D08D4F3B
:10110000B84205D08C4FB84202D08C4FB84206D1BD
:101110004FF6DF77394046F01007394305E04FF6C8
:101120005F77394044F01007394302830184F0BDF2
:10113000028B4FF6F3731A400283028B0A43028339
:101140007047F0B50C46154600220021068C4FF67C
:10115000FE773E400684028B018C4FF60C763240BF
:101160007E1C06EA03162E433243704EB0420ED068
:101170006F4EB0420BD0B0F1804F08D06D4EB042F0
:1011800005D06D4EB04202D06C4EB04206D14FF643
:10119000FD76314044F00106314305E04FF6F57627
:1011A000314044F00106314302830184F0BD70B543
:1011B00005460C465D4885420ED05D4885420BD001
:1011C000B5F1804F08D05B48854205D05A4885422A
:1011D00002D05A48854200D100E000BF208850B9B3
:1011E0002389A28861882846FFF7ABFFE18828465B
:1011F000FFF79EFF25E0208804280AD12389A288D2
:1012000061882846FFF753FFE1882846FFF742FF31
:1012100017E0208808280AD12389A28861882846F7
:10122000FFF7FBFEE1882846FFF7EEFE09E0238981
:10123000A28861882846FFF7A6FEE1882846FFF7C6
:1012400095FE70BD2DE9F04105460C4600260127AC
:10125000608808B9022600E00026A088012801D194
:10126000022700E001272088A0B92389A28861888D
:101270002846FFF766FFE1882846FFF759FF2389D4
:101280003A4631462846FFF712FFE1882846FFF725
:1012900001FF13E02389A28861882846FFF707FF32
:1012A000E1882846FFF7F6FE23893A46314628466C
:1012B000FFF747FFE1882846FFF73AFFBDE8F081D6
:1012C0000A884B881A438B881A43CB881A430B89A8
:1012D0001A434B891A438B891A43A0F8442070475C
:1012E0004FF6FF71818000210180C1804180017231
:1012F00070470021018041808180C180018141814E
:101300008181C1817047002101804180012181805C
:101310000021C180018170470021018041808180CE
:10132000C18001814181818170470000002C014012
:10133000003401400004004000080040000C004060
:1013400021B1028842F00102028004E002884FF6D7
:10135000FE731A400280704731B1B0F8442042F465
:101360000042A0F8442005E0B0F84420C2F30E0289
:10137000A0F8442070471AB183890B43838102E0AF
:1013800083898B43838170478182704741EA0203DE
:10139000A0F8483070471AB183890B43838102E07B
:1013A00083898B438381704701894FF6F87211401E
:1013B000018170470A46002101894FF68F73194059
:1013C00011430181704730B504460D462946204639
:1013D000FFF7F0FF208940F00700208130BD2DE9A4
:1013E000F04104460D4616461F46602D06D13B4689
:1013F000012231462046FFF75AFE05E03B46012216
:1014000031462046FFF79DFE29462046FFF7D2FFD2
:10141000208940F007002081BDE8F08130B50C46FE
:1014200000210189C9B24FF6FF7505EA032515436E
:1014300025432943018130BD2DE9F04105460E4683
:1014400017469846002443463A4631462846FFF759
:10145000E5FF2C894FF6F870044044F007044FF67E
:101460008F70044044F070042C81BDE8F081F0B529
:1014700004460D4616461F463B4632462946204640
:10148000FFF7CCFF208940F480402081F0BD01852A
:10149000828270470A46002101884FF68F731940F7
:1014A000114301807047F0B50C4615461E460021D9
:1014B000002200230189028B038C4FF6F877394014
:1014C00021434FF6FC473A4040F201173A434FF6AA
:1014D000DD773B404FF6FF7707EA06172F433B4384
:1014E000018102830384F0BD0A460021018B4FF67F
:1014F0008F7319401143018370470A460021018B05
:1015000048F6FF7319404FF6FF7303EA02231943AD
:10151000018370470A460021818B4FF68F73194073
:101520001143818370470A460021818B48F6FF737F
:1015300019404FF6FF7303EA022319438183704772
:1015400021B1028842F08002028004E002884FF656
:101550007F731A400280704721B1828842F00402F2
:10156000828004E082884FF6FB731A4082807047C5
:1015700021B1828842F00802828004E082884FF61E
:10158000F7731A408280704721B1828842F00102CD
:10159000828004E082884FF6FE731A408280704792
:1015A0000A460021018B4FF6F7731940114301835E
:1015B00070470A460021018B4FF2FF7319404FF626
:1015C000FF7303EA02231943018370470A4600218F
:1015D000818B4FF6F77319401143818370470A4698
:1015E0000021818B4FF2FF7319404FF6FF7303EA1E
:1015F00002231943818370470A460021018B4FF66D
:10160000FB7319401143018370470A460021018B87
:101610004FF6FF3319404FF6FF7303EA02231943D5
:10162000018370470A460021818B4FF6FB731940F6
:101630001143818370470A460021818B4FF6FF33A7
:1016400019404FF6FF7303EA022319438183704761
:101650000A460021018B4FF67F7319401143018325
:1016600070470A460021018BC1F30E014FF6FF734C
:1016700003EA02231943018370470A460021818B44
:101680004FF67F7319401143818370470A4600214A
:10169000818BC1F30E014FF6FF7303EA0223194356
:1016A000818370470A460021018C4FF6FD73194073
:1016B0001143018470470A460021018C4FF6F773ED
:1016C00019401143018470470A460021018C4FF6EE
:1016D000DF7319404FF6FF7303EA021319430184C5
:1016E00070470A460021018C4FF67F7319404FF670
:1016F000FF7303EA02131943018470470A4600216D
:10170000018C4FF6FF5319404FF6FF7303EA022393
:101710001943018470470A460021018C4FF2FF7380
:1017200019404FF6FF7303EA0223194301847047FF
:101730000A460021018C4DF6FF7319404FF6FF73E6
:1017400003EA023319430184704730B500230124B2
:101750008C40A3B2048C9C430484048C02FA01F5EF
:10176000ADB22C43048430BD30B5002304248C403A
:10177000A3B2048C9C430484048C02FA01F5ADB23C
:101780002C43048430BD70B5034600200024184665
:10179000183001258D40ACB21D8CA5431D8409B1C4
:1017A000082909D100EB6100056825F07005056086
:1017B0000568154305600EE00D1FC5F34E0528446E
:1017C000056825F4E045056005684FF6FF7606EAF2
:1017D00002263543056070BD21B1028842F0020245
:1017E000028004E002884FF6FD731A4002807047C1
:1017F00021B1028842F00402028004E002884FF620
:10180000FB731A400280704721B1828842F0800247
:10181000828004E082884FF67F731A40828070478E
:1018200002884FF6F7731A40028002880A4302804A
:10183000704782884FF68F731A40828082880A43ED
:101840008280704702894FF6F8731A40028102893C
:101850000A430281704702894FF67F731A40028162
:1018600002890A43028170478184704781857047ED
:10187000818670470187704781877047A0F84010C4
:10188000704702884FF6FF431A40028002880A43DD
:10189000028070470146888E70470146088F704766
:1018A0000146888F70470146B1F8400070470146F5
:1018B000888C70470146088D704702460020138AC5
:1018C0000B400BB1012000E000207047CA430282A8
:1018D000704730B50246002000230024158A05EA2F
:1018E0000103958905EA010413B10CB1012000E060
:1018F000002030BDCA4302827047000010B5044684
:10190000FB48844209D101218803FFF79FF8002199
:101910004FF48040FFF79AF832E0F648844209D14C
:1019200001214804FFF79FF800214FF40030FFF732
:101930009AF825E0F048844209D101218804FFF794
:1019400092F800214FF48020FFF78DF818E0EB4863
:10195000844209D10121C804FFF785F800214FF422
:101960000020FFF780F80BE0E548844208D1012110
:101970000805FFF778F800214FF48010FFF773F89F
:1019800010BD2DE9F04786B005460E460024A2465C
:1019900000BFA1460027B08900B100BF2F462C8AA6
:1019A0004CF6FF700440F08804432C82AC894EF65C
:1019B000F3100440B0883189084371890843044317
:1019C000AC81AC8A4FF6FF400440B0890443AC823E
:1019D00001A8FEF7B4FFC648874202D1DDF810A087
:1019E00001E0DDF80CA0A88900F4004040B10AEB4A
:1019F000CA0000EB0A1031684900B0FBF1F807E0BB
:101A00000AEBCA0000EB0A1031688900B0FBF1F85C
:101A10006420B8FBF0F004012009642101FB108967
:101A2000A88900F4004040B1322000EBC900B0FBAF
:101A3000F1F000F00700044308E0322000EB091049
:101A40006421B0FBF1F000F00F0004432C8106B0DC
:101A5000BDE8F0874FF41651016000218180C180FC
:101A600001810C21418100218181704710B502461E
:101A70000020108A4FF2FF0318400B884C88234344
:101A80008C882343CC8823431843108210BD002147
:101A9000018041808180C180704721B1828942F4F8
:101AA0000052828104E082894DF6FF731A408281E0
:101AB0007047F0B50346002400260025002040F6BC
:101AC0006A17B94200D100BF1846C1F3421401F0B1
:101AD0001F06012707FA06F5012C01D10C3004E09E
:101AE000022C01D1103000E014301AB107682F43E6
:101AF000076002E00768AF430760F0BD1AB1838A50
:101B00000B43838202E0838A8B4383827047028A7D
:101B10004FF6F0731A400282028A0A43028270472B
:101B200082894FF2FF731A40828182890A4382813F
:101B3000704721B1828942F00202828104E08289E9
:101B40004FF6FD731A4082817047028A4FF6DF73A9
:101B50001A400282028A0A430282704721B1028A35
:101B600042F48042028204E0028A4BF6FF731A407C
:101B700002827047C1F3080282807047014688885C
:101B8000C0F308007047818941F0010181817047ED
:101B9000028BD2B20283028B42EA01220283704797
:101BA000028B02F47F420283028B0A430283704756
:101BB00021B1828A42F02002828204E0828A4FF6BA
:101BC000DF731A408282704721B1828A42F010028C
:101BD000828204E0828A4FF6EF731A408282704755
:101BE00021B1828A42F00802828204E0828A4FF6A2
:101BF000F7731A408282704721B1828942F4004211
:101C0000828103E08289C2F30E028281704721B192
:101C1000828A42F40062828204E0828A4FF2FF7379
:101C20001A4082827047828A4FF6FB731A40828282
:101C3000828A0A438282704721B1828A42F002027C
:101C4000828204E0828A4FF6FD731A4082827047D6
:101C500002460020B1F5007F00D100BF13880B4081
:101C60000BB1012000E00020704701F40072B2F5D2
:101C7000007F00D100BFCA430280704770B50246A2
:101C8000002400230025002040F66A16B14200D14E
:101C900000BFC1F3421501F01F03012606FA03F34A
:101CA000012D02D19689334006E0022D02D1168A19
:101CB000334001E0968A33400C12012606FA04F400
:101CC0001688344013B10CB1012000E0002070BD33
:101CD00010B50022002340F66A14A14200D100BFD3
:101CE0000A1201249440A3B2DC43048010BD00001A
:101CF000003801400044004000480040004C0040D3
:101D00000050004008B500F019FF00F062F900F043
:101D10001FFA4721C72000F02FFA00F041FE0020F3
:101D200000F0F1FA002000F0E0FA1F481F490860B7
:101D300000201F4908601F490860C7211E48FFF79F
:101D400097FDC7211C48FFF795FD1CA000F0B2FFCE
:101D500028E01648006800F05BFF044610200323CB
:101D6000224600210090084600F0CCFC00F0FDFA6D
:101D70000F480068012808D141031248FEF73DFCD6
:101D80004FF400410F48FEF738FC0948006802286C
:101D900008D1C1020B48FEF730FC4FF480410948DE
:101DA000FEF72BFCD5E70000000047432800002089
:101DB0002C00002030000020002C0140526561649E
:101DC000790A0000000C0140704700BFFEE700BF29
:101DD000FEE700BFFEE700BFFEE7704770477047B1
:101DE000704770B540F225515548FFF747FF00286E
:101DF00072D05348FFF7C2FEC4B221465048FFF7E5
:101E0000B9FE21464FA000F055FF442C65D006DCFA
:101E1000312C73D0322C07D0412C6ED14DE0532C95
:101E200033D0572CF9D118E04A484B49086008468E
:101E3000006800F0EDFE85B229464848FFF718FD1E
:101E40004548006800F0E4FE85B229464348FFF7A4
:101E500011FD43A000F02EFF6FE001204349086010
:101E600001034348FEF7CBFB4FF480414048FEF7A7
:101E7000C6FBC7213948FFF7FBFCC7213748FFF7EE
:101E8000F9FC3CA000F016FF57E00220374908603B
:101E900001033748FEF7B3FB4FF400413448FEF727
:101EA000AEFBC7212D48FFF7E3FCC7212B48FFF706
:101EB000E1FC31A000F0FEFE3FE003202B4908606A
:101EC000C7212648FFF7D4FC64212448FFF7D2FC41
:101ED0002BA000F0EFFE30E030E004202349086042
:101EE00064211E48FFF7C4FCC7211C48FFF7C2FC51
:101EF00025A000F0DFFE20E000E01AE000201B49F2
:101F000008604FF480511A48FEF779FB4FF4804186
:101F10001748FEF774FB4FF400511548FEF76FFBAE
:101F20004FF400411248FEF76AFB19A000F0C2FE10
:101F300003E019A000F0BEFE00BF00BF70BD0000AE
:101F400000440040476574636861723A2025630A63
:101F5000000000000000C84228000020002C0140C2
:101F600073706565643D35300A0000002C00002068
:101F7000000C014055500A00444F574E0A00000023
:101F80004C4546540A00000052494748540A000094
:101F900053544F500A000000506C65617365207403
:101FA000727920616761696E200A000008B54FF4FC
:101FB000A060FEF7A7F926208DF8000001208DF81B
:101FC00001008DF802008DF803006846FEF79FF9C6
:101FD00008BD00B585B001210420FEF71DFD0121DB
:101FE0004804FEF726FD0420ADF8100018208DF8F7
:101FF000130003208DF8120004A95248FEF750FA8E
:102000000820ADF8100004208DF8130004A94D48F5
:10201000FEF746FA4FF4165000900020ADF8040089
:10202000ADF80600ADF80800ADF80C000C20ADF8D6
:102030000A0069464448FFF7A4FCFFF7B7FF0122F6
:1020400040F225514048FFF734FD01213E48FFF79B
:1020500024FD05B000BD70B504460D462946204656
:10206000FFF788FD00BF80212046FFF7F1FD002823
:10207000F9D070BD2DE9F04107460D461646002403
:1020800005E0295D3846FFF7E6FF601CC4B2B442A4
:10209000F7DB00BF40213846FFF7DAFD0028F9D012
:1020A000BDE8F08170B506460C46002500BF615DB5
:1020B0003046FFF7D0FF6D1C605D0028F7D100BFF0
:1020C00040213046FFF7C4FD0028F9D070BD2DE94E
:1020D000F04105460C46260AE7B231462846FFF78E
:1020E00049FD00BF80212846FFF7B2FD0028F9D046
:1020F00039462846FFF73EFD00BF80212846FFF7FE
:10210000A7FD0028F9D0BDE8F08170B504460D4662
:10211000E1B20D48FFF72EFD00BF80210A48FFF70E
:1021200097FD0028F9D0204670BD10B5044600BFC9
:1021300020210548FFF78CFD0028F9D00348FFF760
:102140001DFD10BD00080140004400400048004053
:1021500008B501210820FEF75FFC4FF47040ADF890
:10216000000010208DF8030003208DF8020069465E
:102170002648FEF795F908BD30B589B005460C46EE
:10218000FFF7E6FF012140F60500FEF745FC4FF49E
:102190004070ADF8200018208DF8230003208DF842
:1021A000220008A91A48FEF77BF905A8FFF798F85E
:1021B000ADF81850ADF814400020ADF81A00ADF895
:1021C000160005A91348FEF75FFD6020ADF8040076
:1021D0000120ADF806000020ADF80A00ADF80C00B3
:1021E00001A90C48FEF78DFD01A90A48FEF7CBFDB9
:1021F00001210848FFF7B0F801210648FFF7A0F9D0
:1022000001210448FFF79CF809B030BD000C0140E3
:1022100000080140002C014010B52021FB48FEF7CA
:10222000ECF98021F948FEF7EAF98021F748FEF73A
:10223000E4F910BD10B52021F448FEF7DEF92021A5
:10224000F248FEF7DCF910BD70B5044600251BE02E
:102250002021EE48FEF7D3F904F0800020B1802160
:10226000EA48FEF7CAF903E08021E848FEF7C7F91B
:102270002021E648FEF7C1F92021E448FEF7BFF926
:102280006006040E681CC5B2082DE1DB70BD10B5F8
:102290008021DE48FEF7B1F92021DC48FEF7ADF9D8
:1022A0008021DA48FEF7ABF92021D848FEF7A7F9DC
:1022B00010BD70B505460C46FFF7E9FF7820FFF723
:1022C000C3FFFFF7B7FF1CB14020FFF7BDFF02E0DF
:1022D0000020FFF7B9FFFFF7ADFF2846FFF7B4FF77
:1022E000FFF7A8FFFFF798FF70BD10B504461CB9B3
:1022F0000021A620FFF7DDFF012C03D10021A7203C
:10230000FFF7D7FF10BD10B504463CB90021C82027
:10231000FFF7CFFF0021A120FFF7CBFF012C07D152
:102320000021C020FFF7C5FF0021A020FFF7C1FF5B
:1023300010BD10B500218D20FFF7BBFF0021142038
:10234000FFF7B7FF0021AF20FFF7B3FF10BD10B5B7
:1023500000218D20FFF7ADFF00211020FFF7A9FF1E
:102360000021AF20FFF7A5FF10BD70B500241CE0D1
:1023700004F1B001C8B20021FFF79BFF002108461D
:10238000FFF797FF00211020FFF793FF002508E0DB
:102390009F4901EBC501085D0121FFF78AFF681C19
:1023A000C5B2802DF4DB601CC4B2082CE0DB70BD2C
:1023B00070B500240CE0002506E00020944901EBF4
:1023C000C5010855681CC5B2802DF6DB601CC4B27F
:1023D000082CF0DBFFF7C9FF70BD70B50A46CE17B9
:1023E00001EB5676C6F3C703CE1701EB5676F6100F
:1023F000A1EBC606F4B20122A240D5B2844A02EB98
:10240000C002D25C2A43824E06EBC006F25470BD75
:1024100070B50B46CE1701EB5676C6F3C702CE1742
:1024200001EB5676F610A1EBC606F4B20123A340E9
:10243000DDB2774B03EBC0039B5CDB43744E06EBD2
:10244000C006B354724B03EBC0039B5C2B43704E2E
:1024500006EBC006B3546E4B03EBC0039B5CDB433F
:102460006B4E06EBC006B35470BD2DE9F84F054620
:102470000E4617469846002D0ADB802F08DC002EFA
:1024800006DBB8F1400F03DCBD4201DC464501DD4F
:10249000BDE8F88FBD420DD1002406E03019C1B26D
:1024A0002846FFF79AFF601CC4B2A8EB0600A042C2
:1024B000F4DC30E046450CD1002406E02919C8B20E
:1024C0003146FFF78AFF601CC4B2781BA042F5DCDE
:1024D00021E0A8EB060000F0FF0A781B00F0FF0BDC
:1024E0000AEB8A00400090FBFBF000F0FF0900249B
:1024F0000EE004FB09F00A2190FBF1F03044C0B279
:1025000029190090C8B20099FFF767FF601CC4B298
:10251000781BA042EDDC00BFBAE72DE9F043064688
:102520000F469046002544463BE03A1BD1B2721953
:10253000D0B2FFF752FF3A1BD1B2721BD0B2FFF7F5
:102540004CFF3A19D1B2721BD0B2FFF746FF3A19CD
:10255000D1B27219D0B2FFF740FF7A19D1B2321955
:10256000D0B2FFF73AFF7A1BD1B23219D0B2FFF7DF
:1025700034FF7A1BD1B2321BD0B2FFF72EFF7A198B
:10258000D1B2321BD0B2FFF728FF6D1C05FB05F05E
:1025900004FB040008FB1809B9F1000F01DD641EFB
:1025A0006D1E6000604308FB08F18842BDDABDE89B
:1025B000F0832DE9FF4F81B080460E461C46009601
:1025C0002046E31704EB5373DB1021464FEAE47C0B
:1025D00004EB5C7C4FEAEC0CA4EBCC0CBCF1000FE0
:1025E00002D04FF0010C01E04FF0000C6344224692
:1025F00004EBD27C4FEA6C0C03FB0CF303F0FF0BF3
:1026000003982038C7B200254CE0000000080140C4
:10261000741400200C2C07D107EB4700FE4901EB96
:10262000800010F805A014E0102C05D1FB4800EB49
:10263000071010F805A00CE0182C07D107EBC70015
:10264000F74901EB800010F805A002E005B0BDE8F5
:10265000F08F4FF000091FE00AF0800020B13146F2
:102660004046FFF7BAFE03E031464046FFF7D0FE92
:102670004FEA4A604FEA106A701CC6B20098301ADE
:10268000A04205D1009E08F1010000F0FF0806E01D
:1026900009F1010000F0FF09B9F1080FDCDB00BF10
:1026A000681CC5B25D45B5DB00BFCFE7F0B5064697
:1026B0000F4614461D4613E022782B463946304615
:1026C000FFF777FF284605EBD07106EB6101CEB22C
:1026D000C5F18000B04202DA0026B81CC7B2641C03
:1026E0002078202802DB20787E28E5DDF0BD10B5BB
:1026F0000246012000E050430B00A1F10104E1B2C9
:10270000F9D110BD2DE9F04F06468A4691461F4685
:10271000099C00252CE0781B401EC1B20A20FFF75F
:10272000E6FFB9FBF0F00A21B0FBF1F201FB120861
:10273000B8F1000F0CD1A34604EBDB71491001FB8B
:102740000561C8B2234630225146FFF732FF0DE043
:10275000A34604EBDB71491001FB0561C8B208F127
:102760003001CAB223465146FFF723FF681CC5B2A9
:10277000BD42D0DBBDE8F08F2DE9FF4F074688460C
:1027800091461C464FF0000B0297CDF8048020467E
:10279000E11704EB5171C1F3C701009160E009FB3F
:1027A00004F0C11700EB51710BEBE101CEB20BF15C
:1027B000010000F0FF0B002550E0102C05D19948D6
:1027C00000EB0610405D03901BE0182C07D106EBD0
:1027D000C600954901EBC000405D039011E0202C3C
:1027E00005D1924800EBC610405D039009E0402CF3
:1027F00005D18F4800EB4620405D039001E0BDE825
:10280000FF8F4FF0000A17E0039800F0010020B19D
:1028100041463846FFF7E1FD03E041463846FFF701
:10282000F7FD03984010039008F1010000F0FF0845
:102830000AF1010000F0FF0ABAF1080FE4DB781C8E
:10284000C7B20298381AA04204D1029F01980830FA
:10285000C0B20190DDF80480681CC5B2A542ACDBB3
:102860000098411EC9B20091002898D100BFC6E768
:10287000804689460026002749E03FB910233246AA
:1028800018218020FFF778FF701CC6B2464522D180
:102890004FF0000A1AE0002410E000250AE0654825
:1028A00000EBC400415D601E624A02EBC00041556E
:1028B000681CC5B2082DF2DB601CC4B2902CECDBA6
:1028C000FFF753FD0AF1010000F0FF0A4FEA09107B
:1028D0005045E0DC0026781CC7B2102F00D100273D
:1028E000002410E000250AE0524800EBC400415DDE
:1028F000601E504A02EBC0004155681CC5B2082D4D
:10290000F2DB601CC4B2902CECDBFFF72EFDB4E7C9
:1029100070B504460D4605F1B001C8B20021FFF7BD
:10292000C8FC102141EA14100021FFF7C2FC04F09A
:102930000F0141F001000021FFF7BBFC70BD2DE944
:10294000F05F05460E4617469846DDF828B04FF072
:102950000009CA460024E11704EB5171C910A4EB29
:10296000C10101B901E0601CC4B2344614E0214643
:102970002846FFF7CDFFAA460AE01BF8090001210F
:10298000FFF797FC09F101090AF1010000F0FF0AC5
:10299000BA45F2DB601CC4B24445E8DBBDE8F09FF9
:1029A00008B501210420FEF737F8B020ADF800008B
:1029B00010208DF8030003208DF8020069461E48A0
:1029C000FDF76EFDB0211C48FDF717FE0121082020
:1029D000FEF722F840F20310ADF8000010208DF849
:1029E000030003208DF8020069461448FDF758FDE6
:1029F00040F203111148FDF700FE01210F48FDF7D9
:102A0000FCFD642000F0D7F801210C48FDF7F7FD2C
:102A1000C82000F0D0F813E0C82D00083C320008B0
:102A20002C38000834000020940100206C020020A3
:102A30006C0400207414002000080140000C0140C8
:102A400001213D48FDF7D9FD02213B48FDF7D7FDA7
:102A50000021AE20FFF72DFC00210846FFF729FCDE
:102A600000211020FFF725FC00214020FFF721FC6A
:102A700000218120FFF71DFC0021CF20FFF719FC6A
:102A80000021A120FFF715FC0021C820FFF711FC51
:102A90000021A620FFF70DFC0021A820FFF709FC6C
:102AA00000213F20FFF705FC0021D320FFF701FCA8
:102AB00000210846FFF7FDFB0021D520FFF7F9FBB9
:102AC00000218020FFF7F5FB0021D920FFF7F1FB63
:102AD0000021F120FFF7EDFB0021DA20FFF7E9FBF1
:102AE00000211220FFF7E5FB0021DB20FFF7E1FBCF
:102AF00000214020FFF7DDFB00212020FFF7D9FB5C
:102B000000210220FFF7D5FB00218D20FFF7D1FB2C
:102B100000211420FFF7CDFB0021A420FFF7C9FB03
:102B20000021A620FFF7C5FB0021AF20FFF7C1FB66
:102B3000FFF73EFC08BD0000000C014010B56FF02F
:102B40000400FDF72EFC2E4800682E49B0FBF1F082
:102B50002D4908700846007800EB4001C1EBC01019
:102B60004FF6FF7101EAC0002849088010BD0146F8
:102B7000254A12784A434FF0E0235A6100229A61B5
:102B80001A46126942F001021A6100BF4FF0E022BA
:102B9000106900F001021AB100F48032002AF5D069
:102BA0004FF0E022126922F001024FF0E0231A6197
:102BB00000229A6170470146144A12884A434FF036
:102BC000E0235A6100229A611A46126942F001021A
:102BD0001A6100BF4FF0E022106900F001021AB143
:102BE00000F48032002AF5D04FF0E022126922F082
:102BF00001024FF0E0231A6100229A617047000041
:102C00000000002000127A006C1400206E140020D6
:102C100020F00040C10DC0F3160040F400007F29F1
:102C200001DA00207047962903DCC1F19601C84003
:102C30007047963988407047064C074D06E0E068BB
:102C400040F0010394E8070098471034AC42F6D3F3
:102C5000FDF750FA88450008A845000870B58C18A3
:102C600010F8015B15F0070301D110F8013B2A11A0
:102C700006D110F8012B03E010F8016B01F8016B8D
:102C80005B1EF9D12B0705D40023521E0DD401F889
:102C9000013BFAE710F8013BCB1A921C03E013F852
:102CA000015B01F8015B521EF9D5A142D8D3002087
:102CB00070BD00000FB4054B10B503A9044A02987B
:102CC00000F017F810BC5DF814FB00000B210008A1
:102CD0007014002002E008C8121F08C1002AFAD1AF
:102CE00070477047002001E001C1121F002AFBD18C
:102CF00070472DE9F84F99469246884605460027C9
:102D000006E025280AD051464A4690476D1C7F1C94
:102D100028780028F5D13846BDE8F88F002315F84B
:102D2000011F18462E2915D115F8011F04232A2941
:102D30000DD06FF02F022978A1F13004092C09D8A9
:102D400000EB800002EB400008446D1CF3E758F8EC
:102D5000040B6D1C2A78002ADDD0632A07D0732A61
:102D60000FD0104651464A4690477F1C2AE018F87B
:102D7000042B8DF8002000218DF801106E460121F2
:102D800003E058F8046B4FF0FF315A074FF000048E
:102D900001D409E0641C84420BDA8C42FADB325D18
:102DA000002AF7D105E0641C8C42FCDB305D002872
:102DB000F9D1274404E016F8010B51464A469047E2
:102DC000641EF8D26D1CA3E70000000000000000A4
:102DD00000000000000000003F4000000000000074
:102DE00000003000400030004000000009000BC02F
:102DF0003D000BC03D00090018C024407FE0224088
:102E000031800000180024C01B000D80324001807A
:102E100003801C4027401C800740004010006000D9
:102E200000000000000000000000000000001F8003
:102E3000204040200000402020401F800000000073
:102E4000090006001F8006000900000004000400BD
:102E50003F8004000400000000100060000000003B
:102E6000000000000400040004000400040000004E
:102E7000000000400000000000000000002001C031
:102E800006003800400000001F8020402040204005
:102E90001F800000000010403FC000400000000004
:102EA00018C02140224024401840000010802040DB
:102EB000244024401B80000002000D0011003FC090
:102EC000014000003C802440244024402380000036
:102ED0001F80244024403440038000003000200044
:102EE00027C03800200000001B80244024402440DC
:102EF0001B8000001C0022C0224022401F800000D6
:102F00000000000008400000000000000000000079
:102F10000460000000000000000004000A0011002E
:102F20002080404009000900090009000900000054
:102F300000004040208011000A000400180020001A
:102F400023402400180000001F8020402740294013
:102F50001F400000004007C039000F0001C00040C2
:102F600020403FC0244024401B8000001F802040A0
:102F7000204020403080000020403FC020402040C2
:102F80001F80000020403FC024402E4030C0000081
:102F900020403FC024402E00300000000F00108071
:102FA000204022403380020020403FC00400040043
:102FB0003FC02040204020403FC020402040000033
:102FC0000060202020203FC02000200020403FC083
:102FD00024400B0030C0204020403FC02040004033
:102FE000004000C03FC03C0003C03C003FC00000A8
:102FF00020403FC00C4023003FC020001F802040E5
:10300000204020401F80000020403FC0244024007A
:10301000180000001F802140214020E01FA0000078
:1030200020403FC02440260019C0004018C0244062
:103030002440224031800000300020403FC020402A
:103040003000000020003F80004000403F80200012
:1030500020003E0001C0070038002000380007C0F3
:103060003C0007C038000000204039C0060039C0CD
:10307000204000002000384007C0384020000000F9
:10308000304021C02640384020C000000000000031
:103090007FE0402040200000000070000C00038012
:1030A000004000000000402040207FE000000000C1
:1030B0000000200040002000000000000010001070
:1030C0000010001000100010000000004000000080
:1030D00000000000000002800540054003C00040E1
:1030E00020003FC004400440038000000000038033
:1030F00004400440064000000000038004402440D7
:103100003FC0004000000380054005400340000030
:10311000000004401FC0244024402000000002E0C2
:10312000055005500650042020403FC004400400D4
:1031300003C000400000044027C000400000000021
:1031400000100010041027E00000000020403FC0E5
:103150000140070004C00440204020403FC0004020
:103160000040000007C0040007C0040003C00000C6
:10317000044007C00440040003C000400000038076
:103180000440044003800000041007F00450044091
:1031900003800000000003800440045007F000108A
:1031A000044007C002400400040000000000064084
:1031B0000540054004C00000000004001F800440DA
:1031C00000400000040007800040044007C00040A9
:1031D0000400070004C0018006000400060001C0CE
:1031E000070001C006000000044006C0010006C040
:1031F000044000000410071004E0018006000400F1
:103200000000044005C0064004400000000000002B
:1032100004007BE040200000000000000000FFF000
:1032200000000000000040207BE0040000000000DF
:10323000400080004000200020004000000000000E
:10324000000000000000000000000000000000007E
:1032500000001FCC000C000000000000000008006F
:10326000300060000800300060000000022003FC15
:103270001E20022003FC1E200220000000000E1869
:1032800011043FFF10840C78000000000F00108430
:103290000F3800C0077818840078000000780F8489
:1032A00010C411240E9800E400840008080068008F
:1032B000700000000000000000000000000000009E
:1032C000000007E01818200440020000000040023F
:1032D0002004181807E0000000000000024002402F
:1032E00001800FF001800240024000000080008059
:1032F00000800FF800800080008000000001000DB9
:10330000000E00000000000000000000000000802F
:103310000080008000800080008000800000000CA1
:10332000000C00000000000000000000000000068B
:10333000001800600180060018002000000007F05F
:10334000080810041004080807F000000000080432
:1033500008041FFC000400040000000000000E0C24
:1033600010141024104411840E0C000000000C18DE
:1033700010041104110412880C700000000000E019
:103380000320042408241FFC0024000000001F98D0
:10339000108411041104108810700000000007F060
:1033A00008881104110418880070000000001C0037
:1033B000100010FC13001C001000000000000E386C
:1033C00011441084108411440E38000000000700DE
:1033D000088C10441044088807F00000000000002A
:1033E0000000030C030C00000000000000000000BF
:1033F0000001010600000000000000000000008045
:1034000001400220041008081004000002200220DD
:1034100002200220022002200220000000001004EE
:1034200008080410022001400080000000000E0087
:103430001200100C106C10800F00000003E00C183C
:1034400013E4142417C4082807D000000004003C2B
:1034500003C41C40074000E4001C000410041FFCCF
:103460001104110411040E880070000003E00C1810
:1034700010041004100410081C10000010041FFC9D
:10348000100410041004080807F0000010041FFCCA
:103490001104110417C410040818000010041FFCC4
:1034A0001104110017C010000800000003E00C1800
:1034B0001004100410441C780040000010041FFC8D
:1034C00010840080008010841FFC10040000100491
:1034D00010041FFC10041004000000000003000191
:1034E000100110011FFE10001000000010041FFC4E
:1034F000110403801464181C1004000010041FFC45
:103500001004000400040004000C000010041FFC60
:103510001F0000FC1F001FFC1004000010041FFC13
:103520000C04030000E010181FFC100007F008084E
:10353000100410041004080807F0000010041FFC19
:1035400010841080108010800F00000007F0081811
:1035500010241024101C080A07F2000010041FFC9D
:103560001104110011C011300E0C000400000E1CDB
:1035700011041084108410441C380000180010003E
:1035800010041FFC100410001800000010001FF8A9
:1035900010040004000410041FF8100010001E00A6
:1035A00011E0001C007013801C0010001FC0103CB4
:1035B00000E01F0000E0103C1FC000001004180CC9
:1035C000163401C001C01634180C100410001C0081
:1035D000130400FC13041C00100000000804101C5D
:1035E0001064108413041C04101800000000000074
:1035F00000007FFE40024002400200000000300058
:103600000C0003800060001C00030000000040026A
:10361000400240027FFE00000000000000000000A9
:103620002000400040004000200000000001000198
:103630000001000100010001000100010000400044
:103640004000200000000000000000000000009882
:10365000012401440144014400FC000410001FFC4B
:103660000088010401040088007000000000007060
:1036700000880104010401040088000000000070BB
:1036800000880104010411081FFC0004000000F878
:10369000014401440144014400C800000000010449
:1036A00001040FFC1104110411001800000000D6E1
:1036B00001290129012901C90106000010041FFC8C
:1036C000008401000100010400FC0004000001046A
:1036D000190419FC000400040000000000000003AD
:1036E00000010101190119FE0000000010041FFC77
:1036F0000024004001B4010C01040000000010048B
:1037000010041FFC0004000400000000010401FC80
:103710000104010001FC0104010000FC010401FCA2
:10372000008401000100010400FC0004000000F816
:10373000010401040104010400F80000010101FF7B
:103740000085010401040088007000000000007082
:10375000008801040104010501FF000101040104C6
:1037600001FC00840104010001800000000000CC85
:10377000012401240124012401980000000001001B
:10378000010007F80104010400000000010001F835
:10379000000400040004010801FC00040100018091
:1037A0000170000C001001600180010001F0010CAB
:1037B000003001C00030010C01F0010000000104E4
:1037C000018C00740170018C010400000101018171
:1037D0000171000E001801600180010000000184E9
:1037E000010C013401440184010C000000000000C0
:1037F0000000000001003EFC40024002000000000A
:1038000000000000FFFF0000000000000000400278
:1038100040023EFC010000000000000000006000CB
:1038200080008000400040002000200000000000D8
:103830000000000000000000000000000000000088
:103840000000000000000000000000000000000078
:103850000000000000000000000000000000000F59
:1038600080380FFE380F8038000000000000000094
:103870000000000000000000000001000006000041
:103880000C00003800003100000600000C00003879
:1038900000003000000000000000000061800067B0
:1038A000F807F9800061800061800061800061801C
:1038B0000067F807F9800061800000000000000048
:1038C000000001C0E003E0F00630080418081FFF04
:1038D000FE040E080787F00381E0000000000000EE
:1038E00001F000060C00040408060C7001F9C00089
:1038F0000E00003BE000EC18070808040C18000359
:10390000E00000000001E00007F003F818041C08C4
:1039100004170807E1D003C0E00023B0003C080012
:10392000200800001000000000000001000031002D
:10393000003200001C000000000000000000000039
:103940000000000000000000000000000000000077
:103950000000000000000000000000007F0001FFE8
:10396000C00780F00C0018100004200002000000C6
:103970000000002000021000040C00180780F00175
:10398000FFC0007F000000000000000000000000F9
:103990000000000000000000420000660000660019
:1039A000003C0000180003FFC0001800003C0000AD
:1039B00066000066000042000000000008000008E9
:1039C0000000080000080000080001FFC000080017
:1039D00000080000080000080000080000000000C7
:1039E000000100003100003200001C000000000057
:1039F00000000000000000000000000000000000C7
:103A00000000000008000008000008000008000096
:103A10000800000800000800000800000800000876
:103A20000000000000000000000000003800003826
:103A3000000038000000000000000000000000004E
:103A40000000000000000000000000000006000070
:103A50001C000070000180000E0000380000C00053
:103A60000700001C00003000000000000000000003
:103A70007F8001FFE0038070060018040008040046
:103A80000806001803807001FFE0007F800000003E
:103A90000000000000000100080100080100080308
:103AA000FFF807FFF8000008000008000008000009
:103AB0000000000000000001C03802C05804009857
:103AC000040118040218040418061C1803F818014D
:103AD000E0F800000000000000000001C0E003C0AA
:103AE000F004000804080804080806180803F4187D
:103AF00001E7F00001E0000000000000000000000D
:103B00000300000D000011000061000081080301A6
:103B10000807FFF80FFFF800010800010800000087
:103B20000000000000E007FCD006080806100806A8
:103B30001008061008061838060FF00607C0000027
:103B400000000000000000003F8001FFE00384301F
:103B500002081804100804100804100807181003BD
:103B60000FF00007C000000000000000000003C0CC
:103B7000000700000600000600F80607F806180017
:103B800006E0000700000600000000000000000141
:103B9000E1E003F7F0063410041808041808040CD8
:103BA00008040C0806161803F3F001C1E000000039
:103BB00000000000F80003FC30030638040208048B
:103BC00002080402080404100308F001FFC0007F8B
:103BD00000000000000000000000000000000000E5
:103BE00000000000703800703800703800000000DD
:103BF00000000000000000000000000000000000C5
:103C00000000000000000000301A00301C0000001E
:103C100000000000000000000000000000000000A4
:103C20000000000800001400002200004100008095
:103C3000800100400200200400100800080000007D
:103C400000000000210000210000210000210000F0
:103C5000210000210000210000210000210000219E
:103C60000000000000000000000008000804001030
:103C7000020020010040008080004100002200007E
:103C8000140000080000000000000003C00004C091
:103C900000040000080038080F3808083808100031
:103CA0000C300007E00003C000000000000000002E
:103CB0003F8000FFE0038070020F1006708804C090
:103CC00088048308047F8802C09003012000FE401E
:103CD0000000080000180001F8003E0801C20007BB
:103CE000020007E20000FE00001FC80001F800000B
:103CF0003800000804000807FFF807FFF804080868
:103D000004080804080804080806180803F4180141
:103D1000E7F00001E0000000000000003F8001FF2C
:103D2000E003807002001804000804000804000882
:103D30000400100600200780C000000004000807EF
:103D4000FFF807FFF8040008040008040008040056
:103D50001802001003807001FFE0007F8000000067
:103D600004000807FFF807FFF8040808040808041F
:103D70000808040808043E080400080600180100AA
:103D80006000000004000807FFF807FFF8040808B7
:103D9000040800040800040800043E0006000006B1
:103DA0000000018000000000000000003F8001FFD3
:103DB000E0038070060018040008040208040208EA
:103DC0000203F00783F0000200000200040008076D
:103DD000FFF807FFF80408080008000008000008C2
:103DE0000000080004080807FFF807FFF8040008AF
:103DF0000000000000000400080400080400080798
:103E0000FFF807FFF8040008040008040008000099
:103E10000000000000000000000600000700000194
:103E200004000104000104000307FFFE07FFFC0477
:103E3000000004000004000004000807FFF807FF6A
:103E4000F8040C08001800003E0004C7800503C8F1
:103E50000600F804003804001800000804000807F1
:103E6000FFF807FFF8040008000008000008000041
:103E700008000008000008000018000060000000B2
:103E800004000807FFF807800807FC00007FC00057
:103E900003F80007C000780007800807FFF807FF55
:103EA000F804000804000807FFF807000803C00032
:103EB00000E000003800001E000007000001C00400
:103EC00000F007FFF8040000000000007F8001FF01
:103ED000E0038070060018040008040008060018BB
:103EE00003003001FFE0007F8000000004000807AD
:103EF000FFF807FFF80404080404000404000404A5
:103F000000040400060C0003F80001F000000000AB
:103F1000000000007F8001FFE0038070060088043D
:103F200000880400C806003C03003E01FFE6007F55
:103F30008400000004000807FFF807FFF8040808E1
:103F4000040800040C00040F00040BC00610F0036A
:103F5000F03801E00800000800000001E0F803F07C
:103F600030063010041808041808040C08040C0863
:103F70000206180207F00781E00000000180000639
:103F8000000004000004000004000807FFF807FF19
:103F9000F80400080400000400000600000180008E
:103FA00004000007FFE007FFF0040018000008000D
:103FB000000800000800000800000804001007FFC7
:103FC000E004000004000006000007E00007FE0017
:103FD000041FE00001F80000380001E0043E000783
:103FE000C00006000004000004000007E00007FF16
:103FF000C0041FF80007C007F80007FF80043FF85F
:104000000007C004F80007000004000000000004DE
:10401000000806001807C07805F1C8003E00001F20
:10402000800463E80780F806001804000800000018
:1040300004000006000007800007E008047C080078
:104040001FF80007F800180804E008070000060041
:10405000000400000000000100080600380400F819
:104060000403E8040F08047C0805F00807C00807EB
:1040700000180400600000000000000000000000C4
:10408000000000000000003FFFFE200002200002B0
:1040900020000220000220000200000000000000BA
:1040A000000008000007000000C000003800000603
:1040B000000001C000003000000E00000100000000
:1040C000000000000000200002200002200002206A
:1040D00000022000023FFFFE000000000000000080
:1040E00000000000000000000000000000080000C8
:1040F0001000003000002000003000001000000818
:1041000000000000000000000000010000010000AD
:104110000100000100000100000100000100000199
:10412000000001000001000001000001000000008B
:10413000000000000020000020000010000010001F
:10414000000000000000000000000000000000006F
:104150000000000000F00019F8001B180022080001
:104160002608002408002410003FF8001FF8000073
:104170000800001800000004000007FFF80FFFF01F
:10418000001818001008002008002008003018004F
:104190001FF0000FC00000000000000007C0001F5B
:1041A000F0001830002008002008002008003C081B
:1041B000001C100000600000000000000000000073
:1041C00007C0001FF0003818002008002008002059
:1041D0000804101007FFF80FFFF0000010000000A7
:1041E0000000000000000007C0001FF000123000B7
:1041F0002218002208002208003208001E10000EBB
:10420000200000000000000020000020080020081E
:1042100001FFF803FFF8062008042008042008071F
:10422000200003000000000000000000000E000E4F
:104230006E001FF30031B10020B10020B1003191B8
:10424000001F13002E1E00200E003000000000048E
:10425000000807FFF80FFFF80010080020000020FA
:1042600000002008003FF8001FF8000008000000D0
:1042700000000000000000200800200800200806C0
:104280003FF8063FF80000080000080000080000A2
:104290000000000000000000000000000300000318
:1042A000002001002001002003063FFE063FFC0025
:1042B000000000000000000000000004000807FFEC
:1042C000F80FFFF8000188000300002FC00038F845
:1042D0000020380020080000080000000000000056
:1042E000000004000804000804000807FFF80FFF9E
:1042F000F8000008000008000008000000000000AE
:10430000002008003FF8003FF800100800200000DF
:104310003FF8003FF8001008002000003FF8003F81
:10432000F8000008000000002008003FF8003FF8F7
:10433000001008001000002000002008003FF800D6
:104340001FF80000080000000000000007C0000F78
:10435000F000183000300800200800200800300865
:10436000001830000FF00007C0000000000000003F
:104370002001003FFF003FFF001011002009002036
:1043800008002008003038001FF0000FC0000000B7
:104390000000000007C0001FF000381800200800CF
:1043A0002008002009001011001FFF003FFF00003F
:1043B00001000000002008002008002008003FF84D
:1043C000003FF80008080010080020080020000046
:1043D0003000003000000000000000000000000C71
:1043E00078001E18003308002308002108002188E7
:1043F0000021980030F0003860000000000000004C
:10440000200000200000200000FFF003FFF8002043
:104410000800200800200800003000000000000014
:10442000000000002000003FF0007FF800001800AE
:104430000008000008002010003FF8007FF0000096
:1044400010000000000000002000003000003C00D0
:10445000003F800023F000007800007000238000FF
:104460003C00003000002000002000003C00003F25
:10447000E00023F80000E0002700003E00003FE0DD
:104480000021F80001E0003E0000200000000000D4
:104490002008002008003838003E6800278000030C
:1044A000C8002CF800383800201800200800000050
:1044B000000000002000003003003C01003F8300AA
:1044C00023EC000070002380003C0000200000204E
:1044D0000000000000000000000000380800203844
:1044E0000020F80023E8002F88003E08003808006C
:1044F0002018000070000000000000000000000014
:10450000000000000000000008000014001FF7FC7D
:104510003000062000020000000000000000000043
:104520000000000000000000000000000000FFFF8D
:10453000FF0000000000000000000000000000007C
:104540000000000000002000023000061FF7FC0001
:10455000140000080000000000000000000000003F
:104560000000000000000018000060000040000093
:1045700040000020000010000008000004000004BB
:1045800000000C0000100000A845000800000020FA
:10459000741400005C2C0008744700087414002098
:1045A00084080000E42C00081184A24A0468090170
:1045B000020304060708090C6910E5020406081B3B
:1045C000F010012AFF0552F01B0F04012AFF0532EB
:1045D0000F18094040405F55555575041A5F0C1976
:1045E00011180C200F094989790909090F200F11A9
:1045F0002FFE02424ACA4A03344202FE400EFF40E6
:10460000504C4340404F50505C40FF1BF888012AFB
:10461000FF0552F81B1F08012A7F10149F80F03BF2
:104620008082016009E2A2928A8682808084408032
:104630007F172424A4FEA3221B22CC5A411508066E
:1046400001FF2A019E1604FF02020239BC5B90089A
:1046500063120810100444827F01808040432C10B4
:104660002846818019281E84E43C2724011AE40C82
:1046700011140402011AFFBD19C4496415FE225A1F
:10468000862BFE920129BF111DFF040807C51F20BC
:10469000030C142241E1178040201806802D0718D2
:1046A00020409E1201100B20702826212020243843
:1046B000602301013B10123C3D9212120240211A6C
:1046C0003F948B103FC54BC080014BFC84080336E0
:1046D000C0C03CFF7F40014AFF075B40FF600138DC
:1046E000034A7F700373FCF86CFFFE02018BFFFF2F
:1046F0000B0268036C1F1F04017BFFFF0B02741F7A
:10470000038C7F3F07FFF8F8F0F0702001E60214F9
:10471000801AFF0109122C09132D01FF01C0EDFFC2
:10472000FFFE06011AFF01F915391603FF07020102
:10473000D10C12FFFFFF1409101509151601FF0116
:10474000C1EDFFFFFF18011914091015391601FFFB
:1047500001D204120201011AFF01011209122A01F9
:10476000FF01D71AFF0101FF01FD05FF1F1F0F0FFA
:0447700001E800005C
:04000005080000ED02
:00000001FF
